:100000000C942A000C9434000C9434000C943400AA
:100010000C9434000C9434000C9434000C94340090
:100020000C9434000C9434000C9434000C94340080
:100030000C9434000C9434000C9434000C94340070
:100040000C9434000C9434000C9434000C94340060
:100050000C94340011241FBECFE5D8E0DEBFCDBF25
:100060000E9436000C946B000C94000081B3806EEB
:1000700081BB81B38E7F81BB80E090E0809BFECF0F
:100080008330910524F542B3BC016B5F7F4F21E0C3
:1000900030E002C0220F331F6A95E2F7242B22BB07
:1000A00001968099FECFEACF809B11C042B3BC017C
:1000B0006C5F7F4F21E030E002C0220F331F6A9552
:1000C000E2F72095242322BB01978099FECF1816D2
:0A00D000190654F3D3CFF894FFCFC4
:00000001FF
