:100000000C942A000C9434000C9434000C943400AA
:100010000C9434000C9434000C9434000C94340090
:100020000C9434000C9434000C9434000C94340080
:100030000C9434000C9434000C9434000C94340070
:100040000C9434000C9434000C9434000C94340060
:100050000C94340011241FBECFE5D8E0DEBFCDBF25
:100060000E9436000C9487000C94000081B3806ECF
:1000700081BB8FEF82BB2FEF44E38CE021504040E7
:100080008040E1F700C0000012BA9FEF24E34CE08B
:10009000915020404040E1F700C0000025E030E0F2
:1000A00016C042B381E090E0022E02C0880F991F73
:1000B0000A94E2F7842B82BB8FEF94E34CE08150EB
:1000C00090404040E1F700C000002F5F3F4F2830D4
:1000D00031053CF32150310917C042B381E090E073
:1000E000022E02C0880F991F0A94E2F7809584239C
:1000F00082BB8FEF94E34CE0815090404040E1F7A9
:1001000000C000002150310933233CF7C7CFF894D9
:02011000FFCF1F
:00000001FF
